:020000041103E6
:1020000003B40148019001BDEB21000003B4014875
:10201000019001BDD979FF1F03B40148019001BDB2
:10202000697DFF1F03B40148019001BDB9BF0000E5
:1020300003B40148019001BD0FF4000003B401484E
:10204000019001BD9573FF1F03B40148019001BDCC
:102050009D6BFF1F03B40148019001BDD971FF1FA3
:1020600003B40148019001BDC9BAFF1F03B4014880
:10207000019001BD41F4000003B40148019001BD8D
:10208000DDBAFF1F03B40148019001BDA97EFF1F07
:1020900003B40148019001BD4979FF1F03B4014811
:1020A000019001BD59F9000003B40148019001BD40
:1020B0005DF6000003B40148019001BD75F4000015
:1020C00003B40148019001BDE978FF1F03B4014842
:1020D000019001BDCDF9000003B40148019001BD9C
:1020E0006102000003B40148019001BD9D76FF1F0D
:1020F00003B40148019001BD097AFF1F03B40148F0
:10210000019001BD6D66FF1F03B40148019001BD40
:10211000BD58FF1F03B40148019001BDA57D0020FB
:1021200003B40148019001BD1742FF1F03B40148E9
:10213000019001BD4D7F002003B40148019001BD15
:10214000E5BDFF1F03B40148019001BDD9B2FF1FD7
:1021500003B40148019001BD1584FF1F03B4014879
:10216000019001BD79D1FF1F03B40148019001BD69
:10217000FD3F002003B40148019001BD6D93002094
:1021800003B40148019001BD3994002003B4014813
:10219000019001BDBD95002003B40148019001BD2F
:1021A0007942FF1F03B40148019001BD917E0020D8
:1021B00003B40148019001BD8D02000003B4014841
:1021C000019001BD3BA5FF1F03B40148019001BD73
:1021D00025A5FF1F03B40148019001BD4D66000015
:1021E00003B40148019001BD4942FF1F03B40148F7
:1021F000019001BD0592FF1F03B40148019001BD8C
:1022000021FA000003B40148019001BD934600206B
:1022100003B40148019001BDF95DFF1F03B40148FB
:10222000019001BDF572002003B40148019001BD89
:10223000BD8F002003B40148019001BD616A0020F8
:1022400003B40148019001BDF140FF1F03B40148F0
:10225000019001BD89F2000003B40148019001BD65
:10226000FB21000003B40148019001BD59F30000B7
:1022700003B40148019001BD4D7DFF1F03B4014827
:10228000019001BD9D1E000003B40148019001BDF5
:102290001921002003B40148019001BD3F43FF1FF5
:1022A00003B40148019001BD1547FF1F03B4014865
:1022B000019001BDD524002003B40148019001BD67
:1022C000D523002003B40148019001BD7D230020E7
:1022D00003B40148019001BD8925002003B40148E1
:1022E000019001BD1D25002003B40148019001BDEE
:1022F0001D1F002003B40148019001BD31200020C2
:1023000003B40148019001BDB7B9FF1F03B40148F0
:10231000019001BDF91D000003B40148019001BD09
:10232000A91F000003B40148019001BDB178FF1F4F
:1023300003B40148019001BD9D70FF1F03B4014823
:10234000019001BDC971002003B40148019001BD95
:102350004569002003B40148019001BD35690020A2
:1023600003B40148019001BD6117000003B40148A6
:10237000019001BDAD4D000003B40148019001BDC5
:102380001D6DFF1F03B40148019001BD7975002048
:1023900003B40148019001BD8975002003B40148D0
:1023A000019001BDF1F9000003B40148019001BDA5
:1023B000BD94002003B40148019001BDC97EFF1FF8
:1023C00003B40148019001BDF567FF1F03B4014844
:1023D000019001BD7971002003B40148019001BD55
:1023E000571A000003B40148019001BD031A000010
:1023F00003B40148019001BDF119000003B4014884
:10240000019001BD0D24002003B40148019001BDDD
:102410007151002003B40148019001BD6D460020B8
:1024200003B40148019001BD4537002003B40148C1
:10243000019001BD0F40002003B40148019001BD8F
:102440008349002003B40148019001BD65050020C7
:1024500003B40148019001BD45C0FF1F03B401480A
:10246000019001BD1B40002003B40148019001BD53
:102470006149002003B40148019001BD95C1FF1FCF
:1024800003B40148019001BD5148002003B4014844
:10249000019001BDAD46FF1F03B40148019001BD8D
:1024A000C566FF1F03B40148019001BD75530020AC
:1024B00003B40148019001BDD9B5FF1F03B4014821
:1024C000019001BD45E0FF1F03B40148019001BD2B
:1024D0001D1B000003B40148019001BDB9DCFF1FC2
:1024E00003B40148019001BD8933002003B40148C1
:1024F000019001BD91DBFF1F03B40148019001BDB4
:1025000061DEFF1F03B40148019001BDD17E0020B0
:1025100003B40148019001BDD59CFF1F03B40148DD
:10252000019001BDA1A4FF1F03B40148019001BDAA
:10253000096AFF1F03B40148019001BD79B4FF1F70
:1025400003B40148019001BDDD69FF1F03B40148D8
:10255000019001BD817E002010B588B002226C463A
:10256000A2700A4B002201290CD0E2702271E275A0
:10257000227620801A7880332146188EFFF740FD9E
:1025800008B010BD0121E1702271F0E778BE002093
:1025900010B505490548FFF739FD0348044A0521F0
:1025A0000830FFF739FD10BDA0B20020FFFF00008A
:1025B0006CBC031110B50022104B002809D0012873
:1025C00009D01033022809D003280AD0022210466D
:1025D00010BD187800E058780870F8E7588908802E
:1025E000F5E70648801C04780C7140784871588DD6
:1025F0000880588F488001208871E8E798B2002051
:1026000010B505495F200A785F2A03D9087003488E
:10261000FFF708FD002010BD98B200209163031160
:10262000014948607047000098B2002010B5034A85
:1026300013210348FFF7F0FC10BD000038BC031164
:1026400004AF002010B500241346002802D0022455
:10265000204610BD0A4619460148FFF7E9FCF7E796
:10266000FBAE0020F0B50446C12080002E4F0025AF
:102670002E4E87B0052C05D0012C28D030780528A7
:102680003DD04CE001A9FFF7D9FC03AA08210020A6
:10269000FFF7D8FF26492748FFF7D0FC254805A9B2
:1026A000C01DFFF7CBFC6846057069462248FFF75E
:1026B000CBFC68460078042805D31F480022114649
:1026C000401FFFF7C7FC3D70FFF7CAFC27E002A9D7
:1026D000FFF7B4FC6946087A0870487A4870887A2F
:1026E00088700D71CD70487BC871087B8871C87A7D
:1026F00048716A4608210020FFF7A4FF0FE010226E
:1027000000210E48FFF7B2FC3078052801D1FFF711
:10271000B3FC0B493D70012008700A4805700A4857
:102720000470347007B0F0BDF5B3002058B5002038
:10273000FCB300200E0300000E040000B0BF002018
:1027400016B40020F6B30020F4B3002010B5062222
:102750000149FFF76DFC10BD5EB5002038B5114C86
:102760006946A0710120087001466A460E48FFF7CD
:1027700071FC0025ED432846FFF784FC2846FFF74F
:1027800087FCFFF753FFFFF703FF02F04DFC00202B
:10279000FFF746FF054802F059FC0121A079FFF739
:1027A0007DFC38BDF4B300200D040000052B03119F
:1027B0007CB5384D0C46080409D5A879FFF774FCA0
:1027C000002801D0FFF776FC0120C0035DE0E007A0
:1027D0000121002802D0204648407CBD2D486207D8
:1027E00000780BD5052807D1A878002802D007F07B
:1027F00029FB01E0FFF764FC042046E0A2070AD5AC
:10280000052806D1FFF7FCFE234A0221A879FFF72D
:102810005DFC022039E0220724D56878082126468D
:102820004E4000281AD028796979884201D10023C6
:1028300008E00B21401CFFF74FFC29710B2041439E
:1028400016480B18002B05D09A7859781878DB1C9D
:1028500007F0ACFA28796979884201D130467CBD0D
:1028600020467CBDE20612D56A461170117105281A
:102870000AD1312001AA01210001FFF733FC6A4689
:1028800001210748FFF72EFC102060407CBD00208E
:102890007CBD0000F4B30020983A0000E8C000209E
:1028A00019030000FEB51D464B6817461C785B787F
:1028B00008981B02E3180026099A9CB2002804D04D
:1028C000304B9C4201D00B20FEBD2E4B9B1C9C42EA
:1028D0000AD02C4B293B9C4206D02A4B193B9C42E8
:1028E00002D05B1C9C4214D1488907F045FA0028AD
:1028F0000CD001970095244A417912690079156836
:1029000001232246A847060037D038E0002028706F
:1029100033E01C4B9C420ED11C4B1B88984201D3C8
:1029200007262CE01B1A934200DC1A46D2B22A700A
:10293000C968091807E01348401E844207D10420E3
:102940002870C96802463846FFF772FB15E0104A46
:10295000022094420DD00B4AD21C944205D1012092
:102960002870C8680078387007E0094A521E9442FF
:1029700003D12870C9680222E5E707F063FA304600
:10298000FEBD00004B2A0000F4B300200CB4002070
:1029900008290000014A116150617047F4B300201A
:1029A000014AD160D0717047F4B3002070B5084C73
:1029B0002578052D09D16578002D06D02579647913
:1029C000A54202D107F0F2F970BD07F09BF970BD86
:1029D000F4B30020FFB583B084460C98002415465C
:1029E0000F46002802D00B2007B0F0BD78680178B0
:1029F00040780002081886B23F48864203D03E481D
:102A00001B38864211D1788907F0B6F900286FD0BB
:102A100006A901950091394A417912690079146833
:102A200000233246A047044649E0334933486A460A
:102A3000491E0069137E8E4211D1012B0DD12978D8
:102A4000002901D0012906D1002900D001214268C6
:102A5000084690474CE080244CE00D244AE0284989
:102A60008E4231D101210C98019100902A463946BD
:102A70006046FFF73DFB04003CD1697828780902E5
:102A800040181E4982B2C8687B89C97905E0478829
:102A90009F4205D0491EC9B208300029F7D1002055
:102AA00000280CD006A901950091012A0AD0032321
:102AB000124A41791269007915683246A847002CFC
:102AC00016D017E00223F3E70B49491C8E420FD1C1
:102AD000012BC2D12978002901D00129BBD1FA6884
:102AE00011702978002901D00321B0E70221AEE757
:102AF00007F0A8F9204677E74D2A0000F4B300203C
:102B0000022900007047000010B515491548FFF76D
:102B10007DFA1348144A12210A30FFF77DFA044661
:102B20000F480A30C1690220FFF744FD0C480F49E5
:102B3000C01E02780A710A4A40784871CA32508928
:102B40000880508B48800120887108310320FFF7EE
:102B500031FD06490220FFF723FF204610BD00008B
:102B60001EB40020FFFF0000B4BC031162C10020AE
:102B700070B50C4C012512190B4C0498002A0FD08B
:102B800000261B2A03D1022903D0032903D01E707B
:102B900004E0217800E0A17801701D70002070BD74
:102BA0006178F9E7CED5FFFF18B4002030B50F4D9E
:102BB00000205219039C0E4D13D01B2A04D1022968
:102BC00003D0032908D00A2030BD012B02D121787F
:102BD000297030BD0D2030BD012BFBD12178A970AB
:102BE00030BD012BF6D12178697030BDCED5FFFF05
:102BF00018B40020FFB585B0087800260C4603966F
:102C0000694604960873002B03D1002804D00128DC
:102C100029D0012009B0F0BD214F00243D46E03508
:102C2000684644730122E9791046A0400142684693
:102C300001D0827300E086733819E030017A6A4669
:102C4000D173417B1174817C5174C17D9174007F7B
:102C5000D074082203A90598FFF750FA641CE4B267
:102C6000052CDDD3D6E76079E279A1796B4607C3FD
:102C70002379E278A1786078FFF746FA61786A46AE
:102C80005173012802D0002802D003E0967301E0BE
:102C900001209073032203A90598FFF72FFAB9E7E3
:102CA000E0C1002008B564216A461170002B01D0F4
:102CB000012008BD03494979117001226946FFF7D7
:102CC0001DFA08BDC0C2002038B5074900240978A4
:102CD000012906D100216A46117001226946FFF7D9
:102CE0000DFA204638BD0000C4B6002038B50022D9
:102CF0000C7800926A461470002B04D1124A002C02
:102D000003D0012C0BD0012038BD91786B4659704F
:102D1000D17899701179D9700422694610E04B7806
:102D2000212B00D293708B78012B00D8D370C978F7
:102D3000012900D8117101216A46517002226946A9
:102D4000FFF7DCF938BD0000C0C200207FB507A145
:102D500036C96E4636C6002B02D0012004B070BDC5
:102D600010226946FFF7CAF9F8E70000FFA7CAF08A
:102D7000504D380202012D19544A4450FFB500202D
:102D800089B00E780090019068460D460670002BC1
:102D900008D1FFF7BFF9374F3C462034002E05D04D
:102DA000012E1AD0012420460DB0F0BDB88D64214B
:102DB000FFF792F96A465170A07A9070607AD070ED
:102DC000207A1071E0795071A079907107226946DC
:102DD0000998FFF793F90446E5E768787D21090132
:102DE000401869460881A8788872E878C8722E79F8
:102DF0008E73687948730790A87908731D490A2271
:102E0000263104A8FFF78CF903990298FFF78EF991
:102E100001282BD0012069464870C88AB98D8842A4
:102E200019D16846007DA17A884214D16846C07CD9
:102E3000617A88420FD13C20464307986A46311890
:102E4000907C3C2250436A46527C80180A1A00D576
:102E5000421A782A01DBFFF76FF9022269460998C6
:102E6000FFF74CF90446FFF755F99CE70020694647
:102E70004870F2E7E0C10020FFB585B00020039064
:102E8000087800260C46009669460196254D087084
:102E900000281CD061786F463972A2787A72E37884
:102EA000BB722079F872012932D8042A30D8042B59
:102EB0002ED808282CD801207870042202A91A489C
:102EC000FFF7B6F86E75A079002816D01CE01648FA
:102ED0006A4601785170417891708178D170C078DC
:102EE0001071687D507111484078012802D09671A8
:102EF00007220FE001209071FAE70C484178012980
:102F000002D14670FFF71EF90120FFF721F900E01A
:102F10007E70022269460598FFF7F0F8039809B021
:102F2000F0BD000000C30020B6B60020F8E7002086
:102F3000F8B50D460746012168460170287800263D
:102F40001D4C012808D0022808D0032806D00428E8
:102F500006D0002020702DE021700AE0207008E0EB
:102F6000FFF7FCF82078012803D0022801D00328BD
:102F700020D1A878697800020843104940BA088037
:102F80000F48007C002801D1FFF7EEF82820FFF75A
:102F9000DFF8012269463846FFF7B0F809480078A3
:102FA000C00701D0FFF7E6F8FFF7EAF80F2080012D
:102FB000FFF7ECF83046F8BD98B5002006B60020C3
:102FC00000C3002020E8002038B5054601246846EB
:102FD00009490470887E01280AD01820FFF7B8F844
:102FE00068460470012269462846FFF787F838BD15
:102FF000002069460870F5E720C300200020002B60
:1030000000D001207047000038B500240A780094F1
:103010006C462270002B04D1114B002A04D0012AE7
:103020000CD00124204638BD1989A170090A6170AD
:1030300003222146FFF762F80446F3E78A784C78CA
:103040001102214349BA198101216A4651700222B5
:103050006946FFF753F8044607F0EAF8E2E7000094
:10306000E0C20020FFB50026087883B00C46009629
:1030700069460196144D3746087000280DD0601C33
:10308000FFF78AF800BA000A2179000208430F49C5
:1030900088420DD9684647700EE0E8696A46010E1D
:1030A0005170010C9170010AD1701071052204E079
:1030B00001216A465170E861022269460398FFF7D0
:1030C0001DF8304607B0F0BDE0C20020E8FD00006A
:1030D0000020704738B500240546009408786A46F9
:1030E00010700A78002B01D0012038BD1E48C07D29
:1030F00000281AD01D48007A012816D01C49087DE6
:1031000001280FD00846C030807E01280AD0012057
:10311000C8758A76012A0DD0022A11D0042A15D04A
:10312000CC758C766846447017E06846447002227D
:10313000694614E069464870FFF716F807200AE070
:1031400069464870FFF710F8082004E069464870A7
:10315000FFF70AF80920FEF7FBFF0222694628461E
:10316000FEF7CCFF38BD0000B8CE00206CE8002090
:1031700060C20020F8B50F461B4916461A4C0A7863
:103180000021603C1D46002A2AD00091E37D0222E6
:10319000012B24D1E175A17E637E194222D0C9079B
:1031A00006D0012369460B7048701020FEF7A6FF79
:1031B000A07E800708D50220694608704F708E7087
:1031C00003221020FEF79AFFA07E400707D50420B7
:1031D000694608704D7002221020FEF78FFFF8BD7F
:1031E000E175F8BD6946F7E7C0C2002038B5002494
:1031F0000B780546684600940D4A0370002B0ED0EC
:10320000887849780002084340BAD06201206946B4
:10321000487002222846FEF771FF204638BD908D87
:103220006A46010A5170907003226946F2E7000075
:10323000E0C2002038B509780546002B01D00120F6
:1032400038BD212912D201206A460D4C107021721E
:10325000207C00280DD1607F12280AD0282808D0B1
:10326000FEF782FF607FFEF773FF02E000206946F1
:103270000870012269462846FEF740FF38BD00006D
:1032800000C3002038B5044600200A7805460090A7
:10329000002B01D0012038BD6B461A700B4B002A61
:1032A00009D0012AF7D14878002806D0987101206A
:1032B0006946487003E09879FAE76846457002224B
:1032C00069462046FEF71AFF38BD000000C3002003
:1032D00038B569460870002427200122FEF70EFF4A
:1032E000204638BD38B500240A7800946C46227018
:1032F000002B04D10D4B002A03D0012A08D0012055
:1033000038BDD988A170090A6170032221460AE0FC
:103310008A784C781102214349BAD98001216A4642
:10332000517002226946FEF7E9FE38BDE0C2002076
:1033300010B509780024062908D8102007F0F6FBFC
:10334000044802210078FEF7A9FE00E0012420468F
:1033500010BD0000D6B6002010B50978002406295B
:1033600008D8082007F0E2FB044802210078FEF7A5
:1033700095FE00E00124204610BD0000D6B60020D6
:1033800010B509780024012906D0022907D00429A4
:103390000FD00124204610BD0021012001E00021B2
:1033A000022007F0C3FB044802210078FEF776FEF6
:1033B000F0E700210420F4E7D6B6002030B50C7801
:1033C0008BB00546062C02D901200BB030BD00227F
:1033D000009201920292214607A80392FEF7E2FEB4
:1033E00007AB07CB04AB07C30B486A46818A14704E
:1033F000D08A7D221201801A6A465070107D90702A
:10340000D07CD0705171080A107106226946284696
:10341000FEF774FED9E7000020C3002070B50D78D8
:103420008AB00646062D02D901200AB070BD0024DC
:10343000009401940294294607A80394FEF7B2FE73
:1034400007AB07CB04AB07C3284603F097FD07F093
:10345000EDFE6A461570D18A7D221201891A6A46EC
:103460005170117D9170D17CD17014715471010A29
:103470009171D071102269463046FEF73FFED4E7C5
:1034800038B5044600206D4602462870002B19D13D
:103490001248807E012816D01148C07D002812D025
:1034A0001048007A01280ED00C480978A038012570
:1034B00001290BD04274684605700146012220465E
:1034C000FEF71CFE38BD28462A70F6E7457406480C
:1034D0000121C9020078FEF7E1FDECE720C30020DE
:1034E000B8CE00206CE80020D6B6002010B500222F
:1034F00011460E20FEF702FE10BD0FB583B000206E
:10350000009001900290012069460870087B487085
:10351000487B8870887BC870C87B0871087C4871BC
:10352000487C8871100AC8710A72180A48728B7236
:103530000B223420FEF7E2FD07B000BDFEB50025EA
:103540000C78009501956A4602951470002B04D101
:103550001A4A002C03D0012C0FD00120FEBD517857
:103560006B46597091789970D178D9701179197129
:1035700002215971062269461CE04B788E78CC787E
:103580000979012B01D0002B10D13746283FAA2FF3
:103590000CD8671FC32F09D86E2907D253709670B5
:1035A000D470117101216A46517001E069464D7075
:1035B00002226946FEF7A2FDFEBD0000E0C2002027
:1035C00038B5044600200A7805460090002B01D04B
:1035D000012038BD6B461A700B4B002A09D0012A16
:1035E000F7D14878002806D0D87101206946487084
:1035F00003E0D879FAE7684645700222694620461A
:10360000FEF77CFD38BD000000C30020F8B503467E
:103610000024684604700878224604280DD84E78A5
:103620008A78CD78094908744E748A740120CD7463
:10363000087569460870024603E068460270012278
:1036400069461846FEF75AFD2046F8BD40C30020E3
:1036500007498A88086807490A70120A4A70887000
:10366000020ACA70020C0A71000E4871704700000D
:10367000004000115EB50020F8B505467348734E52
:103680004178007A40360143002975D128883446B4
:103690000012903420706888001260700420285E48
:1036A0000012A07000F082F910287BDD2078E1780C
:1036B000401A40B200F07AF9032873DA6078217971
:1036C000401A40B200F072F903286BDAA0786179F1
:1036D000401A40B200F06AF9032863DA214600225A
:1036E00008468A56083003685243D2180123CB5645
:1036F0008A395B439A1802600B785B1CDBB20B7053
:10370000142B5BD3044614211046FEF751FD012112
:103710008902091A216003D500212046016017E0C3
:1037200000240A4620464B081F465F43974201D9B2
:10373000194600E018460B1A012B13D00B18641C15
:103740005B08E4B2C82CEFD300204049D8310860B0
:103750003E490220D031085600280EDD0831097894
:10376000081A11E00B464B439C1A03464343D21AF6
:103770009442EAD80846E8E720E000280ADA33490C
:10378000D8310978081840420002B0802F49012042
:10379000487008722D490020D831086092390870AD
:1037A0000CE0FFE729490020D83108609239087001
:1037B0002078E07060782071A0786071234C607888
:1037C000617A084339D1285E21494018214988424D
:1037D00034D20220285E1921490188422EDAC842DB
:1037E0002CDD27460421D837695E786825464018C5
:1037F000463578606978491CC9B2697014291CD3B0
:103800001421FEF7D5FC1449144A411878609142FE
:1038100006D2FD214901091AB1800121617061724E
:103820000F494118914205D20E49081AB080012073
:1038300060706072002078606870F8BD03490020F5
:10384000D831486092394870F8BD0000B8BA0020FD
:103850001F0300003F060000BFF9FFFFBF39000053
:10386000FF3F000060E0FFFFF8B50188294C091216
:10387000217042881212627080880012A070E07875
:10388000081A40B200F092F8274626468A3F503E7A
:103890000025032834DA60782179401A40B200F01C
:1038A00085F803282CDAA0786179401A40B200F03C
:1038B0007DF8032824DA605731684043401801211D
:1038C000615649430818022161564943081830607F
:1038D0003978491CC9B239700A2910D30A21FEF778
:1038E000FBFBA92189003060401A0B49884204D3B0
:1038F0002046D0384570057245723D703560F8BD80
:1039000035603D702078E07060782071A07860713B
:10391000F8BD000088BB002001030000F7B5224D70
:103920008E468446002029462039A8720A4603465E
:10393000CF788E78403233E0DC0701D0012F2DD0D4
:103940005C0060467146005F095F401149114018F4
:1039500002990C5F641104192C20105E844201DD71
:10396000D48500E014869485D08D148E001B80B21F
:103970005086642801D9052010E0502801D9042080
:103980000CE03C2801D9032008E0282801D90220B6
:1039900004E0142801D9012000E000205B1CDBB208
:1039A000B342C9D3A872FEBDD8BA0020002800DAFD
:1039B000404240B270470000F0B5002385B00A28AD
:1039C00001D80A2902D9FF2005B0F0BD344C0022ED
:1039D00062722246203A927884009446420082180D
:1039E000001B0838083200902D4896462D4A20309A
:1039F0004AE02C4D5C00B03D2E5B64193712177005
:103A0000258C40342E125670248825129570D47857
:103A10003C1B64B29471019404941479341B64B215
:103A2000D471039454792C1B64B214720294D7702D
:103A300016715571049C74450FDC019D009CA542D4
:103A40000BDB039C744508DC009DAC4205DB029C4B
:103A5000744502DC009DAC4208DA0024447004780E
:103A60004D1CAC420BD2641C047008E04478641C0A
:103A7000E4B244701E2C02D900240470447004780F
:103A80008C4203D85B1CDBB26345B2D302788A4216
:103A900003D900210170012096E7002094E700007F
:103AA000D8BA002020F40020F7B554481746016921
:103AB000012282B011430446803C0161A07E0025B2
:103AC00000283ED0401CC0B2A07604283DD03EE085
:103AD0004A4802994430028868000090085A101A37
:103AE00000B200F08FF806464448039944304288FB
:103AF0000098085A101A00B200F084F836183F48AF
:103B0000443081880098385A081A00B200F07AF8D8
:103B10003B49301888421ADC207E401CC0B2207617
:103B20000A2802D0FF2808D009E000206076E17C56
:103B300004221143E174207301E01F202076AD1CA4
:103B4000EDB2A0788542C3D34DE00020A0762B4E85
:103B5000022130690843306100202076054612E0DA
:103B6000306904210843306168000399029A3B5E82
:103B7000095E105E1A4600F04BF8E07C8721084091
:103B80006D1CE074EDB2A0788542E9D3A17820469F
:103B90004A00029951184039CB8F184944310B80A3
:103BA000039BD318403BDB8FD2194B80403AD28F16
:103BB0008A80726B71698A4205D0716300214176F7
:103BC0000121A1760FE0C17C8A070CD5427E521CF0
:103BD000D2B24276042A06D900220423427619433F
:103BE000C174227302E0207B002805D10020034924
:103BF0006073A0734039088105B0F0BD38BB002068
:103C000098080000002800DA404200B27047000027
:103C1000F0B591B0002508956B4609959D83FF4C42
:103C200005950695009501950E958011658418807F
:103C30008446881158800490901198802746403F10
:103C40000B90F87C264603464007203E00282FDADA
:103C50001E21615E7D20C00081420EDC2021615E5C
:103C600081420ADC1A22A25E4042824205DB1C220B
:103C7000A25E824201DB8A4205DA14206083A083BF
:103C80004042E08320841846FB210840012108437C
:103C9000FD210840F8747D742582FD76FD77BD74A2
:103CA0003D777D77BD777571DD4820830320F873FC
:103CB000B87CFF21401CB874387F9131401C3877A4
:103CC000F87F401CF877E089884209D2B178491C16
:103CD000C9B2B1700A2905D90121F170B57001E0AE
:103CE000B570F570782802D93570757008E03078B5
:103CF000401CC0B23070042802D9357001207070A9
:103D0000F07801281DD061466846018404994184F9
:103D10000B99818405A908A801F07AFA05A800F09A
:103D200049FB397C3079814206D03171F87C05221B
:103D30001043FD221040F874787D062806D2801DBD
:103D400005E008A9684601F00DFAE3E7801FC0B25C
:103D50000C2807D3B14AB348783210805080908045
:103D60007D7500201823B04F4B43DB194000185ECF
:103D70004B0005AFA94AFB5E403AA84FD27AC01A61
:103D80004037914201D0032A14D1396908221143E6
:103D900039617178002916D0A04940394979002944
:103DA00013D0012913D0022913D0032914D00429D8
:103DB00015D0C0007D21C900884202DC0A46D042ED
:103DC00010DA61840FE04000F4E7410002E0800077
:103DD000F0E781004018EDE706214843EAE7C1001B
:103DE000081AE7E76084222007A9205E01F074FA30
:103DF00069461C20085E89496084223100F070FA0F
:103E000086484038C17C480607D5386940210843B8
:103E10003861608C208311B0F0BD80488023403031
:103E200002691A43026188066FD5208B638CC01A21
:103E300007B26784880769D5784801235B0440305E
:103E40001A4302610B92E72280381140C17414209A
:103E5000205E03210490FEF7ABF9B8420CDB16207C
:103E6000205E03210290FEF7A3F9B84204DBF0784C
:103E7000002876D1322F74DD684E012140360B9830
:103E8000890408433746803F3061387F0F2819D2B4
:103E9000797F401AFFF7B6FE082813DA387FB97F1A
:103EA000401AFFF7AFFE08280CDA387F032809D93B
:103EB0001E2807D201213069090508433061706965
:103EC000401C48E055484038017F407F4A0043008D
:103ED000C3189A4206D3514B403B9B7F5F00DB19CE
:103EE0009A4214D24D4A403A032910D91E290ED2C3
:103EF0000121306949050843306170690821401C7F
:103F00007061D07C0843D0744BE0B0E1ADE0434F2A
:103F1000403FFA7C920725D5814223D9BA7F91424E
:103F200020D94000081AFFF76DFE082807DDB87F8A
:103F3000397F4000081AFFF765FE082812DC0121CE
:103F40003069890508433061797F387F0818400857
:103F500038777069801C7061F87C08210843F87418
:103F60001FE00EE001213069C905084330611420CB
:103F70001621205E615E4018C10F08184010608451
:103F80000FE0264901220B98D2044031104308610A
:103F9000049902980818C10F081840106084012085
:103FA0000E901E494039C87C02073FD50E46803628
:103FB00001223069120610433061CD76CD77F26868
:103FC000B069904229D9801A0F46C0B2097F00F02B
:103FD000BBFD2221615ECA0F5118C903090C00F014
:103FE000FFFD307BB3693A7B181AD11CC0B26789D8
:103FF00041437943CF17BF0F791877688910C919E2
:104000007160521CA18950434843C117890F081899
:10401000B16880104018F360B06016E1F8BA002073
:10402000FF7F0000204E0000FCF200209D4B012687
:104030001A697606324322261A61A65F0A2E02DD2D
:10404000CE7E761CCE76CE7E032EE6D90126304378
:10405000FD263040CD76E7264D743040C8740120EF
:104060008006CD7702431A61EFE0C9077ED08D4903
:10407000FF2301331A43084680380A61007F831FFB
:10408000162B73D201235B021A430A618039CD7665
:10409000CD7743000C93497F8B422BD94B000B9378
:1040A000834227D901239B021A437E4B1A617279FE
:1040B0009446092A19D24B000C9ACB189A4209D976
:1040C0000B9A821A01D50B9A121A082A02DC228A4C
:1040D000921C01E0228A521C228262465300724ADC
:1040E000D7526246521C727104E06E4A7571258285
:1040F000803A5574F278012A14D16A4F401A803FF1
:10410000FFF780FD0B280DDA387FB97F401AFFF7E3
:1041100079FD0B2806DA787FB97F401AFFF772FD28
:104120000B2812DBF078002873D15E4F803F387F78
:10413000797F401AFFF766FD062806DB387FB97FD6
:10414000401AFFF75FFD062879DA2220205E1E283C
:1041500075DD544801210269C9020A4301468039CC
:1041600002614B7C042B63D9012300E06DE05B030B
:104170001A4302610C92C87C02221043400840009E
:10418000C874494A4D7455827779012087420BD310
:1041900045493B1A5B004A8ACB5AD2184A824149A8
:1041A00080394A7C521C4A74401CC0B20528EDD3A9
:1041B0003C488038407C002807D0410041183A48EC
:1041C000408AFDF789FF384948823648803845746F
:1041D000022F12D9344900204B8ABF1E0BE032490E
:1041E0004200895A994208D22E4980394A7C521C91
:1041F000401C4A74C0B2B842F1DB2A48218A803898
:10420000427C914206D9274F7B695918891A7961F6
:1042100004E014E0234A536959185161258245741A
:10422000757101220C981F499203104308610CE03C
:104230000126360332435B1C02614B7405E01948CA
:104240008038417C002900D04574A08AE082608CCF
:10425000A0820E98002806D112488038417F8177CD
:10426000017F417705770F4880388574D3E50D4885
:104270008038C37F282B01D9CE0703D1322BF5D943
:104280008B07F3D50126F603064B32431A61C907A3
:1042900004D02582710045740A431A6185774577F9
:1042A000C577B8E538BB00205CF30020042801D2B4
:1042B0000149C87270470000B8BA002010B5441E0A
:1042C000064B312C00D29871881F2C2800D2D9714E
:1042D000052A02D201482038427110BDD8BA002008
:1042E000F0B58C4632499F22CD7C0E4615402036D3
:1042F000CD7432462032317A24242623B779145FD4
:10430000D35E012909D05085A0424CDD98424ADD98
:104310009C422BDAD48313842AE01085A04242DA2F
:10432000984240DA9C4202DD5483938301E0538338
:104330009483938B61460B801D4B01248033196954
:10434000E40721431961938B148C1B1B9BB200243F
:10435000E443D3813472BB4225D9154B10248033FA
:1043600021431961402312491D431BE0D383148468
:10437000138C61460B800E4B012480331969A4070E
:1043800021431961938B148C1B1B9BB20124D38195
:104390003472BB4207D9064B202480332143196174
:1043A00003492543CD74918CD1849084F0BD0000E5
:1043B000B8BA0020FEB506460020305EFFF722FCAA
:1043C00085B2684605800220305EFFF71BFC84B290
:1043D000684644800420305EFFF714FC83B26846D0
:1043E0008380244826460246323600217C3AB54274
:1043F00011D91F463237BD420DD9137C002B08D08E
:1044000003785B1CDBB20370142B2CD90170117480
:10441000FEBD417013E03235AC4212D91F4632372F
:10442000BC420ED9137C012B08D043785B1CDBB255
:104430004370142B17D94170012018E0017081706E
:10444000FEBDB3420FD9AB420DD9137C022B07D06E
:1044500083785B1CDBB28370142B04D9817005E078
:1044600001704170FEBD107C0228FBD9022010743F
:10447000FEBD000034BB0020064900208861486171
:104480000A46803AC8601073886048600420D0747F
:104490007047000038BB002070B50546C67800782C
:1044A0001C4C012E02D07E2806D803E0842801D9B6
:1044B000783802E0800800E06E386081A9783229FF
:1044C00003D980B23222504304E00A2905D280B2D7
:1044D00048430A21FDF700FE60812878012E15D09F
:1044E0000621463848430921FDF762FEC1B26878CB
:1044F00064225043FDF7F0FDC0B2C82800D9C8209F
:1045000040000521FDF7E8FDA08170BD5038C100D5
:10451000081AE8E7F8BA0020054B98615861D8609E
:10452000642042430A2041439A605960704700006A
:1045300038BB00207CB50D4600216A46304C117115
:10454000A57100283CD00120207005221E21FDF716
:1045500035FE2A460C20024068460270572120781A
:10456000FDF72CFE00221E212078FDF727FE0022F9
:104570002E212078FDF722FE472220212078FDF70A
:104580001DFE982223212078FDF718FE40222421C9
:104590002078FDF713FE4F222E212078FDF70EFE26
:1045A00001AB01220F212078FDF70EFE684600794D
:1045B0001128207809D0002804D00120C0437CBDF8
:1045C0002170D4E70020C0437CBD00286B4608D092
:1045D0000222A321FDF7F8FD68460078982807D14C
:1045E00002E002222321F5E768464078402802D005
:1045F0000220C0437CBD6846007940B27CBD00000B
:10460000B8BA0020054A10B51146203908462038AE
:1046100000F008F80248807810BD0000B0F30020D8
:10462000B8BA0020F0B587B0074600256846057087
:10463000674814460E4601AB01222F210078FDF792
:10464000C3FD68460079410603D5202069460871FC
:1046500003E0C106C90E684601715D486946857070
:104660000D7014E05A48C178002927D0817A0029BA
:1046700025D08572007800285FD002AB013302227A
:10468000A821FDF7A1FD69460878401C087008784C
:1046900009798842E6D34E4800222E210078FDF7A2
:1046A0008DFD4B484F222E210078FDF787FD4848AD
:1046B0004078002845D001285CD065E085724448E8
:1046C000012181720078002825D002AB0133062237
:1046D000A821FDF779FD6946887A497A00024118D8
:1046E0003B4882785200B9526946097B0A02694602
:1046F000C97A52188178490072526946897B0A0248
:104700006946497B51180AB2817849006252417862
:10471000012904D00AE0072202AB2721D9E72C4B5C
:10472000817840339B884900D21862528178491CB5
:10473000C9B281701029AED2A5E7032202AB2721AE
:104740009FE7684605700EE048003A5A69460A82BB
:10475000325A4A82205A888204A8FEF78DFF6946A1
:104760000878401C087068460178194880788142B2
:10477000EAD309E03988684601823188418221887C
:10478000818204A8FFF770F8114CE079401CC0B298
:10479000E071142810D9E5716B460122232120789D
:1047A000FDF712FD68460078982805D0A179207899
:1047B000FFF7C0FE69460870A078002805D1A179EE
:1047C0002078FFF7B7FE6946087007B0F0BD00001B
:1047D000B8BA002070B52A49002208464B696038F3
:1047E0000B62857A0446203C022D02D2CD699D429F
:1047F00005D0C272012242722271CB610CE0C17AF3
:10480000491CC9B2C1720A2906D9E17C04231943A3
:10481000E174C27222714272E078217988422AD012
:104820001748E17080380078002925D00022202127
:10483000FDF7C4FCFF2090300221491C6429FCDBF9
:10484000401EF9D2472220212078FDF7B7FC98229C
:1048500023212078FDF7B2FC402224212078FDF7A7
:10486000ADFC00222E212078FDF7A8FC4F222E213E
:104870002078FDF7A3FC70BD27222021F9E7000076
:1048800038BB0020FFB5944D00262F4640372C46FC
:1048900089B020341AE1A07E401CC0B2A076042862
:1048A00002D9E978012904D0012870D9E8780028D4
:1048B0006DD10020A0768848CA300288700004902C
:1048C00009990290085A101A00B2FFF79BF901905B
:1048D00081480A99CA3042880298085A101A00B2D0
:1048E000FFF790F906907C480B99CA3082880298AD
:1048F000085A101A00B2FFF785F9E27D01996B465C
:104900001141844619810698104158816346521C12
:10491000134108186A469381C01882B2788F6E4995
:10492000401C80B27887803105904B6A9A184A62A1
:104930000A210192FDF7D0FB002909D16648019AAE
:104940008030816A8A4202D3511AC908C1628262E8
:1049500032210598FDF7C0FB00291ED15E4880304A
:10496000016B82690B460A339A4204D9E37E002B1D
:1049700001D05B1EE3760B4614339A420CD93231D8
:104980008A4209D2E17E052902D9042103E09BE095
:10499000012901D90021E1760263FF210598233125
:1049A00088427DD3002078871E210198FDF794FB73
:1049B0000198494A4009803250620A39227E49B240
:1049C000844690424BD200236377E27E072A12D0BE
:1049D000207F401CC0B22077002A0ED0012A13D0BD
:1049E000022A18D0032A1DD0042A22D0052A27D053
:1049F000062A2CD048E0237746E0627E921C904243
:104A000042D92377012028E0627ED21C90423BD914
:104A10002377022021E0627E921D904234D92377D1
:104A200003201AE0627ED21D90422DD92377042004
:104A300013E0627E0932904226D9237705200CE0EC
:104A4000627E0B3290421FD92377062005E0627EFA
:104A50000F32904218D923770720E07614E0002027
:104A60002077607F401CC3B26377E07E00280BD0C4
:104A7000022805D8022B03D80A235A43624503D2E1
:104A8000401EE07600206077134A0020803250629A
:104A9000E27E062A0BD3A27F521CD2B2A27700E09C
:104AA00005E028318A4202DDA0770320E0760499F0
:104AB0000998415A0848CA300180049A0A99895ACB
:104AC00041800B99895A8180761CF6B20C988642F7
:104AD00000D2E0E60DB0F0BDB8BA0020074A10B52C
:104AE000054811468378203908462038FFF7CAFE6A
:104AF00001482030C07E10BDB8BA0020B0F30020BD
:104B000010B5C41E0F4B092C00D8D875C81E072835
:104B100000D81976D01E072800D85A7609490020F7
:104B2000987620314887403148628862C862D876DA
:104B3000187708634A3108804880888098775877CA
:104B400010BD0000D8BA0020F8B5224A1346D77B22
:104B500040332032032F0FD1002515739D865573E6
:104B60002C461D4E35550A363555641CE4B20A2CC8
:104B7000F7D3184C7F1CE7739C8E174E6518147B77
:104B8000375DED1BADB29D863155517B0B1831461B
:104B90000A310E5D9B1BDBB253730855641CE0B2F7
:104BA00010730A2804D3002010730120907302E0D0
:104BB000907B012808D109482946434398B2FDF764
:104BC0008BFAC0B2022801D20020F8BD7828FCD9A7
:104BD0007820F8BDB8BA0020D0F30020EE02000023
:104BE000F3B52C4C81B025462E46E17B203640356E
:104BF000042905D10021E9862987F1730521E17394
:104C0000E98E890008180521FDF766FA87B2EF865C
:104C1000288F8100029808180521FDF75DFA80B2FF
:104C2000288728810546802F01D2780000E0FF20E8
:104C30006073C0B20A210746FDF74EFAA17B401807
:104C40004008A073142F03D9142D01D9012020731B
:104C5000782F01D91E2D03D8642F03D9282D01D90F
:104C600002202073A02F01D9322D03D8502F03D951
:104C7000782D01D903202073217BF07B814201D95B
:104C8000401C02E0814201D2401E2073207BF07361
:104C9000FEBD0000B8BA002070B57E23C011C91156
:104CA000D211DB437F2801DD7F2002E0984200DA49
:104CB00018467F2901DD7F2102E0994200DA19467A
:104CC0007F2A01DD7F2202E09A4200DA1A461B4B5E
:104CD0001B4C1E7D1D7C3300FDF77CFA0805080C7B
:104CE000131920232712615541420BE040426055C1
:104CF000494207E0494261556119087520310A723D
:104D000070BD6055601901752030027270BD61552B
:104D10006119087550422031087270BD60554942D2
:104D200005E049426155414201E040426055601949
:104D3000017551422030017270BD0000D8BA0020C8
:104D4000E4F30020002800DA404200B2704700007F
:104D500010B5FFF7A1FF134C11202056002805D0F5
:104D6000012806D00021022807D019E000F02CF815
:104D700001E000F0ADF8607410BD0B4A207C1356C2
:104D80001833542B0CD21218142010563C2807DA72
:104D90002323D84204DD282010561422D042EBDC15
:104DA000617410BDD8BA0020E4F3002005490278F0
:104DB0000A754278CA7480784875887C80221043CE
:104DC00088747047D8BA0020F8B5404C3E49207C22
:104DD00000250A562F461E32652A0AD20A181423C5
:104DE000D3563233652B04D22823D3561422D34210
:104DF00001DAA77566E0012841D0002841D0801E65
:104E0000C6B21420294641432F480818217C415638
:104E10008057081AFFF796FFC1B268464155E27CF9
:104E20009300D2189142E4D86D1CEDB2032DE8D363
:104E3000254D217C6B569A1F2C2A0AD26A182826E7
:104E4000B7560A26F74204DD142696571422D64296
:104E50000BDC002B36DD6A1828239E561E2E31DD12
:104E60001423D3560A22D3422CDDA27D521CD2B287
:104E7000A275022A26D90A2905D30A3904E0132685
:104E8000BFE71226BDE70A31CFB2002614207043D7
:104E9000217C40194156C057081AFFF753FF694655
:104EA0008855761CF6B2032EF0D308460978407870
:104EB0000918684680780818322801D20220F8BD07
:104EC0000120F8BD0020F8BDE4F30020D8BA00208E
:104ED00030B51449487C012821D108462030C278D9
:104EE000521CD2B2C270052A19D30F4C0B7CE55666
:104EF0003235832D0FD2E4181423E356322B0ADC0B
:104F00002825EB4207DB2823E3561E24E34202DB7D
:104F1000497D8A4203D90021C170022030BD0120A1
:104F200030BD0000D8BA0020E4F3002070B50E4D6B
:104F300000200E49286128466038407A0E460C460B
:104F400040362034012804D1324621460748FEF776
:104F5000ABFD324621460548FEF7E0FCFFF73AFC80
:104F600000F006F8A86970BD38BB002070F300207F
:104F70000F4910B508460B7DC27C8030012B06D04E
:104F800043698361500701D50120087510BD5207A0
:104F900001D4426901E0826942618369D41A044BF9
:104FA0002033DB799C42F1D982610020EDE70000DB
:104FB000B8BA0020F8B51A4C00252646203E13E06A
:104FC000184B6F00F81840210A5E2021415ED85F1F
:104FD000FFF7BEFE207C401CC0B22074142801D311
:104FE000002020746D1CEDB2B0788542E8D3A07C1F
:104FF000000611D50A48617C2030012904D081784F
:10500000012905D00020F8BD012181700846F8BDB6
:10501000002181700220F8BD0020C043F8BD0000CF
:10502000D8BA002070F3002010B505490548FCF7F8
:10503000EDFF0348044A06210830FCF7EDFF10BDE0
:105040002CB20020FFFF000054BC0311014908608E
:105050007047000024B2002010B5002211460A203B
:10506000FDF74CF810BD0000F0B589B005460026EC
:10507000202101A8FDF7B4F806206946087001AFA9
:10508000012338466A46194600F01CF86946044672
:105090000E70381901236A460A2100F013F800192E
:1050A000C4B2224601A92846FCF7C2FF224629467F
:1050B00002A0FDF79BF8204609B0F0BD626C6520A8
:1050C0006164760010B51C461346621C0270417084
:1050D00022461946801CFCF7ABFFA41CE0B210BDB1
:1050E000F7B592B00E46174620216846FDF778F8CE
:1050F0001AA0006810901AA0006811900924384680
:10510000FDF77AF8C3B26D4628463A462146FFF7C6
:10511000D9FF044612212819042311AAFFF7D2FF50
:105120000019C4B208AF384606223146FCF780FFAA
:10513000B81D042210A9FCF77BFF0A23FF212819C0
:1051400008AAFFF7BFFF0019C4B2224669461298A9
:10515000FCF76EFF204615B0F0BD0000544A4452E3
:1051600046005A00F0B58E462549254A897D002320
:10517000BE328C464D005C00165B075BD900F71908
:10518000204E5B1C8E19715BDBB27F1A3FB2175346
:10519000015B7153FE17B60FF11989107646315332
:1051A000032BE8D36046401CC1B2154B0020997513
:1051B000042900D398750024145F1349134D641813
:1051C000AC420CD20225555F8D4208DC4C42A54210
:1051D00005DB0425555F8D4201DCA5420EDA094C42
:1051E00000214D005053CD0060532D196880491C9B
:1051F000A880C9B2E8800329F3D39875F0BD0000F8
:10520000B8BA002044F30020B80B0000711700006A
:10521000F3B507462C4881B0407D0024460000903D
:1052200029496500B831485B7A5B2346801818220B
:105230005343264A9A18935BC01A00B24853795BCD
:1052400091530C21FCF7B4FF0299641CE4B248535B
:10525000032CE5D300981C4A401CC1B200205175B4
:105260000C2900D35075184D0023B835EB5E184952
:10527000184C5B18A3420CD20223EB5E8B4208DC75
:105280004C42A34205DB0423EB5E8B4201DCA342CC
:1052900018DA0E4C00214B00E8520B4618267343D7
:1052A000E0521B1958809880D880188158819881C5
:1052B000D88118825882491C9882C9B2D8820329A1
:1052C000E9D35075FEBD0000B8BA0020FCF2002002
:1052D000581B0000B1360000F0B5154C8C46234633
:1052E000403B618ADD7D1A460F186E00E032915B0B
:1052F0006D1C7F1A3FB267829053F80FC01940109F
:1053000061460880E9B20020D975042900D3D87518
:105310001221615E7D256D014919064DA94205D313
:105320006082108050809080D0809875F0BD000021
:10533000F8BA0020411F000010B50120FCF708FF5B
:1053400010BD10B50120FCF703FF10BD7047000031
:1053500010B50448C078012803D1FCF7F9FEFCF72A
:1053600051FF10BD40C300207047000010B5074832
:10537000C078022805D00120FCF7EAFEFCF742FFC6
:1053800010BD0220FCF7E4FE10BD000040C3002069
:105390007047000010B50448C078012802D10720EA
:1053A000FCF7D6FE10BD000040C3002010B5012060
:1053B000FCF7CEFE10BD10B50120FCF7C9FE10BDF4
:1053C00070477047704710B50620FCF7C1FE10BD4E
:1053D000704770477047000010B50C4800790028EE
:1053E00013D00B4A1188491E09B21180002901DA35
:1053F000411E1180012808D9064801218174417499
:10540000054820210078FCF749FE10BD00C20020AD
:1054100036B7002000C30020D6B600207047000039
:1054200010B507480079002801D0FCF7F1FE0548C7
:10543000C078022800D00120FCF78AFE10BD0000D1
:1054400000C2002040C300207047000010B50C4887
:105450000079002813D00B4A1188491C09B2118029
:10546000814201DB00211180012808D90648012171
:1054700081744174054820210078FCF70FFE10BDAF
:1054800000C2002036B7002000C30020D6B600209E
:1054900010B50120FCF75CFE10BD10B50120FCF733
:1054A00057FE10BD704770477047704710B5062013
:1054B000FCF74EFE10BD704770477047704770474D
:1054C00010B508480078012806D10748007801285F
:1054D00003D00220FDF7FCFE10BD022004F0FAFC10
:1054E00010BD0000C0C20020C4B6002070470000FC
:1054F00010B50748C078022805D00120FCF728FE27
:10550000FCF780FE10BD0220FCF722FE10BD00005B
:1055100040C3002010B51A48007801281ED1184851
:105520001849A038C28A0978008B4E2A09D28C28E3
:1055300007D3E62805D2012901D003200CE003207F
:105540000EE01346563B452B0DD28C280BD3E62894
:1055500009D2012903D00120FDF7BAFE10BD0120B8
:1055600004F0B8FC10BDA03A4F2AFBD28C28F9D326
:10557000E628F7D2012901D00220EDE70220EFE76B
:10558000C0C20020C4B6002010B508480078012829
:1055900006D107480078012803D00320FDF798FEC4
:1055A00010BD032004F096FC10BD0000C0C2002016
:1055B000C4B600207047704710B50448C078012871
:1055C00002D10420FCF7C4FD10BD000040C3002040
:1055D0007047000010B50748C078022805D00120A8
:1055E000FCF7B6FDFCF70EFE10BD0220FCF7B0FD87
:1055F00010BD000040C300207047000010B50448F3
:10560000C078012803D1FCF7A3FDFCF7FBFD10BD1A
:1056100040C30020704770477047000010B5044831
:10562000C078042802D00220FCF792FD10BD0000D3
:1056300040C3002010B50E48C18A008B4A1E772A4D
:1056400006D28C2804D9F02802D2FCF7E7FD10BD61
:1056500079397729FBD28C28F9D9F028F7D2054877
:10566000C0780428F3D00220FCF772FD10BD0000C2
:1056700020C2002040C30020704770477047704729
:1056800010B50620FCF764FD10BD704770477047E9
:105690007047704710B50620FCF75AFD10BD00009A
:1056A00010B50D48C18A008B4A1E772A08D28C2873
:1056B00006D9F02804D205F009FFFCF7B5FD10BDAE
:1056C00079397729FBD28C28F9D9F028F7D206202E
:1056D000FCF73EFD10BD000020C20020704770475F
:1056E0007047704710B5094801210278012A09D096
:1056F0000170074881744174064820210078FCF746
:10570000CDFC10BD02220270F3E7000038B7002084
:1057100000C30020D6B600207047000010B507482F
:10572000C078022805D00120FCF712FDFCF76AFDC5
:1057300010BD0220FCF70CFD10BD000040C300208E
:1057400010B51148008B811F392901D201200FE0CB
:1057500001464039392901D2022009E001467A394F
:10576000392901D2032003E0B43839280AD20420B1
:105770000649097889000818401FC0B2062801D2DE
:1057800001F0E2FE10BD000020C2002038B700206A
:1057900010B5094801210278012A09D00170074893
:1057A00081744174064820210078FCF777FC10BD15
:1057B00002220270F3E7000038B7002000C3002087
:1057C000D6B6002010B50120FCF7C2FC10BD10B504
:1057D0000120FCF7BDFC10BD7047000010B5044867
:1057E000C078012802D10720FCF7B2FC10BD0000F0
:1057F00040C300207047000010B50748C078022859
:1058000005D00120FCF7A4FCFCF7FCFC10BD022035
:10581000FCF79EFC10BD000040C300207047000054
:1058200010B50448C078012802D10320FCF790FC91
:1058300010BD000040C30020704770477047000053
:1058400010B50748C078022805D00120FCF780FC7D
:10585000FCF7D8FC10BD0220FCF77AFC10BD00005C
:1058600040C300207047704710B50749487E401E6E
:1058700000D50320487605480121417404482021C1
:105880000078FCF70BFC10BDB8CE002000C3002050
:10589000D6B600207047000010B50748C07802282F
:1058A00005D00120FCF754FCFCF7ACFC10BD022035
:1058B000FCF74EFC10BD000040C3002010B50A49A3
:1058C000C88A0246333A8B2A0DD2098B32290AD96B
:1058D000BE2808D22320FCF73BFCC8231A4601212E
:1058E0006320FCF7A7FC10BD20C2002010B50949B9
:1058F000487E401CC0B24876042801D30020487678
:10590000054801214174054820210078FCF7C6FBB9
:1059100010BD0000B8CE002000C30020D6B6002085
:1059200010B50120FCF714FC10BD10B50120FCF7E8
:105930000FFC10BD704770477047000010B5074856
:10594000C078022805D00120FCF702FCFCF75AFCC5
:1059500010BD0220FCF7FCFB10BD000040C300207E
:105960007047704710B50120FCF7F2FB10BD10B571
:105970000120FCF7EDFB10BD7047000010B5094990
:105980000888401C00B20880032801DB0220088040
:10599000054801214174054820210078FCF77EFB71
:1059A00010BD00005EB7002000C30020D6B6002066
:1059B000704710B50620FCF7CBFB10BD70B515483D
:1059C000C18A1F39B32917D2018B002914D003468D
:1059D0001148124C00220125E033A25E00786429B0
:1059E0000BD2521C11B22180032901DB02210EE0EF
:1059F0005D742021FCF752FB70BD8C29FCD9F02985
:105A0000FAD2521E11B221800029F1DA0021218040
:105A1000EEE7000020C20020D6B600205EB70020CE
:105A200010B509490888401E00B20880002801DA34
:105A30000020088005480121417405482021007894
:105A4000FCF72CFB10BD00005EB7002000C3002057
:105A5000D6B6002000B50300FCF7BCFB06041821F5
:105A60002C3138424B293BD23C2901D3042000BDC4
:105A70002D2901D3032000BD1E2901D3022000BD22
:105A8000192901D3012000BD002000BD4B2927D2D8
:105A90003C29EBD22D29EDD22829EFD207E04B2962
:105AA0001ED23C29E2D23729E4D21E29E6D20F29A0
:105AB000EAD3E7E74B2913D24629D7D203E0552989
:105AC0000ED23C29D2D22D29EFD3D3E70F29DBD335
:105AD0001E29D7D32D29D1D33C29CBD34B29C5D3CC
:105AE000052000BD0FB410B504A9074B02AA039806
:105AF00000F00CF8044602A9002000F041FA20460C
:105B000010BC08BC04B01847815F0311FFB591B009
:105B10000F460546002606E025280AD0149A139958
:105B200090476D1C761C28780028F5D1304615B0BA
:105B3000F0BD002400940121F34A029400E00443E4
:105B40006D1C2B780846203B98401042F7D12878EE
:105B50002A280ED0022128780246303A092A15D880
:105B6000009A0A235A43303A80180C436D1C009067
:105B7000F1E701CF0090002805DA0120400304433B
:105B8000009840420090022004436D1C28782E2883
:105B900015D10420044368786D1C2A280AD101CF4E
:105BA0006D1C02900BE002990A22514330394018D3
:105BB0006D1C02902878014630390929F3D92878DC
:105BC0006C2810D006DC4C281AD068280ED06A2821
:105BD00017D104E0742813D07A2812D110E00120E4
:105BE000400504430CE00121090501E003210905FA
:105BF0000C436978814203D10120000524186D1CF3
:105C00006D1C287803906E281ED00CDC632831D0E0
:105C100004DC00288AD0582811D1B2E064287BD057
:105C200069280CD178E073282DD004DC6F2870D05F
:105C3000702804D1A7E075286CD078286BD0149A0E
:105C400013999047761C62E06002400F022807D04B
:105C500003280AD0042838680AD006603F1D56E0A1
:105C60003868F11706604160F8E738680680F5E7A4
:105C70000670F3E73878694608740020487404A871
:105C80000390012003E0386803900020C0433F1DCB
:105C900061070FD5002101E00199491C029A019189
:105CA000914213DA8142F7DB019A0399895C00295A
:105CB000F2D10BE0002101E00199491C01918142E0
:105CC000FADB019A0399895C0029F5D101990098C2
:105CD000139A401A00902146149B00F03BF9019959
:105CE0008019461807E0039803990078491C03912E
:105CF000149A139990470198401E0190401CF2D1CC
:105D00002146149B139A009800F014F986196D1C13
:105D100009E741E033E034E00A20002104900591D6
:105D20006002410F022905D001CFC2179446032912
:105D300005D007E0FF1DFF08FF0003CF06E000B21B
:105D4000C2179446042902D140B2C1178C460022E2
:105D50006146944506DA0A460021404291418C464C
:105D60002D2102E0210504D52B216A46117601215F
:105D700003E0E10701D02021F7E7019154E00A2078
:105D80000BE0102009E010200490002104200443BF
:105D900008200591029003E008200021059104905D
:105DA0006002410F022905D001CF00229446032949
:105DB00006D006E0FF1DFF08FF0003CF8C4603E07E
:105DC00080B2042900D1C0B20021019121072BD556
:105DD0000399702906D0049A1021059B4A401A4362
:105DE00005D00EE040216A461176012108E06146A7
:105DF000014306D030216A4611760399517602217B
:105E00000191049A0821059B4A401A430CD161462E
:105E1000014301D1610707D530216A46117601217E
:105E200001910299491E02910399582904D037A182
:105E300003910FA90F910DE039A1F9E76146059B88
:105E4000049AFCF7FDF9039B8C469B5C0F9A521E4B
:105E50000F92137061460143F0D10F9807A9081AF9
:105E600020300390600704D5012000048443029889
:105E700001E0012002900399884201DD401A00E010
:105E8000002041180290019809180098401A0090CB
:105E9000E00306D42146149B139A009800F05AF8A8
:105EA00086190020049008E006A9085C149A13994A
:105EB00090470498401C761C049001998842F3DBBB
:105EC000E0030CD52146149B139A009800F042F889
:105ED000861904E0149A302013999047761C029991
:105EE000481E02900029F5DC08E00F980F99007811
:105EF000491C0F91149A13999047761C0399481ED8
:105F000003900029F1DCFBE609280100303132332F
:105F100034353637383961626364656600000000E5
:105F200030313233343536373839414243444546CF
:105F300000000000F8B5044600251E4617468804F8
:105F400004D405E039462020B0476D1C641EF9D505
:105F50002846F8BDFFB50446002581B01E46C8039B
:105F600001D5302700E02027880404D505E0384615
:105F70000399B0476D1C641EF9D5284605B0F0BDE5
:105F80000A68531C0B60107070478030C06900288D
:105F900001D00020704701207047F7B50F4686B04A
:105FA00005463846089904F096FA002000902846E5
:105FB000E0300490203803900C3001902E463430AD
:105FC00080362C46A03402909DE021780B00FCF72F
:105FD00001F90906273848646B7177982500411C40
:105FE0000091385C60700299019808606078002820
:105FF00002D0012812D108E0049903200877281D57
:1060000070610820B061012079E0049804210177D3
:106010002846843070610120B0611EE008206EE0E7
:106020007B1CC35C3A5C1B02D218BB1CF91CC35C12
:10603000415C1B04090659185118001DF1640090B9
:106040000DE0421C00922946F26A385CD03150546F
:10605000F16A002803D0491CF16202204FE00320BE
:106060004DE0411C0091385C7067B1698842D5D21F
:10607000000171690C3009582846B167FFF785FFA8
:106080000028CBD12846019900F042F9002802D01F
:10609000F069401EF061042031E0411C0091395C40
:1060A0000398018605202AE06A463946284600F012
:1060B00038F924E06A463946284600F0C9F81EE05F
:1060C000039A318D138E994203D2491C3185401CAD
:1060D0000090308D118E884210D12846019900F031
:1060E00017F9002804D00298416B2846FC308847F5
:1060F0002846FFF74AFF0028B1D08FE7072020701D
:1061000001E00898009008990098884200D25CE766
:1061100009B0F0BD0901081880300079012800D0CD
:1061200000207047F7B58AB000240646B0300890CA
:10613000694601940C80A0218C55254627462046AF
:10614000009401463046FFF7E5FF0098401C0090A0
:10615000F7D0F01DFD3007900C98002804D00C9962
:106160000B98405C002802D002200DB0F0BD042244
:1061700000210798FBF77AFF2BE00121002F04D0C4
:10618000012F08D0022F24D11BE0224607980F468A
:10619000641C8154F2E70C980B9F0799854204D147
:1061A00022460023641C8B546D1C854205D22A466E
:1061B00023466D1CBA5C641CCA54854208D9022768
:1061C00007E00199079F3046002921D0012928D0F6
:1061D0000127032FD1D101209C218851142C22D9D1
:1061E000A0B2FCF733F8029022460799FBF720FF94
:1061F00008986946008A08800C71089832780088EF
:10620000FCF72AF8002821D00298FCF72BF81DE0B3
:10621000FFF780FF002802D000203855641C0120C1
:1062200001900327D5E700A8224603300799FBF722
:10623000FFFE00206946C87508760898008A088025
:106240008C70089832780088FBF7DAFE00208CE723
:10625000F7B5044605468034606F61690001083077
:10626000095A208D2E46C03682B0174681420CD97D
:10627000318E884209D238680399421C3A60095C21
:10628000208DA26F431C23851154208D318E8842AE
:1062900007D0616F626909010831515A491E814274
:1062A00034D12946CC312846009100F031F800283D
:1062B00006D0606F0021032809D0228DA06F815481
:1062C000208D318E88420CD2072005B0F0BD208D84
:1062D000328E904202D03A680399895CA26F1154C1
:1062E000EEE72846009900F013F8002805D0FF20BB
:1062F000353041592846FC3088472846FFF745FE8F
:10630000002801D00820E0E70320DEE70620DCE7D4
:106310008030896A40690901405C012800D0002072
:10632000704710B504461068431C1360085C0102F6
:106330002046C030028E114301860022403802857B
:1063400000290FD04169406F0001024608328A5A85
:10635000002A05D00C300858002801D0062010BDB6
:10636000072010BD2146CC312046FFF7D1FF002881
:1063700005D0FF20353001592046FC3088472046A3
:10638000FFF703FE002801D0082010BD032010BD38
:1063900010B50446007986B0C00714D060880B4958
:1063A000FBF766FFC0070ED0084869460830408DED
:1063B0000880012088700548002208380078C870DD
:1063C0006088FBF75BFF06B010BD0000A0B20020A4
:1063D00070B5049800241546002801D00B2070BD2C
:1063E000486802784078000210180E4A80B2904245
:1063F0000AD10D485F2102785F2A00D9017001217E
:106400001970007828700BE0084A904207D10220EA
:1064100018700246C9682846FBF70AFE00E00A2405
:10642000204670BD192A000098B2002008290000FB
:106430007CB54C68154622786478069E24021219B1
:106440000F4C92B2E24208D10122019200962A46F4
:10645000FBF74EFE040003D000E00A2420467CBD7A
:106460006978287809024018064980B249680029ED
:10647000F4D0002802D001208847EFE70220FBE794
:10648000FED6FFFF98B2002008B50168012910D19F
:1064900000210091027B816801230420FBF7F4FEB8
:1064A0000449FBF7F7FEFBF7FBFE0349897F00F089
:1064B00061FC08BD00D8424720C3002010B50F2062
:1064C000FBF7F4FE10BD10B500F006F800210E2019
:1064D000FBF7F2FE10BD000010B503210F20FBF703
:1064E000EBFE00210F20FBF7EDFE044A0F201146C2
:1064F000FBF7EEFE0F20FBF7F1FE10BD71AB0311B1
:1065000010B50548054A01680420FBF7EDFE002898
:1065100001D1FBF7EFFE10BDE0BC0311896403114C
:10652000F0B5924D85B00C4608040CD5E878FBF721
:10653000BBFD050004D0FBF7E3FE2846FBF7BAFDE0
:106540000120C0030EE1E00711D0FBF7DFFE884811
:106550000078FBF7E1FE85480C30FBF7E3FE83484B
:106560001430FBF7E5FEFBF7E9FE0120FAE07F4877
:10657000A107002600787F4F00291ADA052816D0D7
:1065800069463846FBF75AFD68460078012806D16F
:106590006846067101AA01213846FBF7A3FDFF20DA
:1065A000E130A88064224021E878FBF78FFD0220CB
:1065B000D8E061071AD5052816D069463846FBF79A
:1065C0003DFD68460078012806D16846067101AA9B
:1065D00001213846FBF786FD19208001A88064223E
:1065E0004021E878FBF772FD0420BBE061063CD552
:1065F0006148007B012836D1694608736878002815
:106600001CD06E70009608460196FCF79FF820207B
:10661000FBF79AFE59A269460290FEF725FD064651
:10662000024658A00299FBF7E1FD52483146801C12
:10663000029AFBF757FD0298FBF78CFEA98806200B
:10664000FBF78EFEA9880720FBF78AFEA9880820A1
:10665000FBF786FEA9880920FBF782FE03AA012129
:106660003846FBF73FFD40207CE021071BD505287D
:1066700008D069463846FBF7E1FC684600780128F7
:1066800008D00EE0FBF71CFD32220821E878FBF76A
:106690001DFD06E06846067101AA01213846FBF798
:1066A00021FD08205EE0E10619D5052815D06946D0
:1066B0003846FBF7C3FC68460078012806D16846D7
:1066C000067101AA01213846FBF70CFD0120687014
:1066D00064224021E878FBF7F9FC102042E0A00694
:1066E0000AD56846FBF742FE00220423694610469D
:1066F000FBF742FE202035E0200521D51E4F603FEC
:106700003878012808D021480670FBF73BFE0126A7
:10671000F602012803D005E0FBF73AFEF5E73878EA
:10672000012807D03146E878FBF738FE2046704054
:1067300005B0F0BD64223146E878FBF7C7FCF5E709
:10674000600509D50C482030407D002801D0FBF7BA
:10675000FFFC0120800205E0600405D5FBF724FE64
:10676000012080036040E3E70020E1E758B5002006
:1067700094B300200503000020C300204954494D74
:10678000450000006461743A00000000C5B50020B7
:1067900070B59EB0054620210BA8FBF721FD2021F6
:1067A00013A8FBF71DFD0024694800940194C570EF
:1067B00006211F20FBF7D4FD0125684605720573ED
:1067C000072101748482462181835A210184042196
:1067D00081844B21C90001855EA003C81C911B90D8
:1067E0006846047606AA01215C48FBF77BFC5B48FF
:1067F0001BAA0621801CFBF775FCC32004AA0121FB
:106800008000FBF76FFC554802AA0121001FFBF72F
:1068100069FC524805AA0221C01EFBF763FCFCF785
:1068200017FF6846FBF792FF4DA269460BA8FEF7DB
:106830001BFC064602460BA94BA0FBF7D7FC4748BA
:106840000BAA3146801EFBF74DFC45A2694613A8F2
:10685000FEF746FC0646024613A946A0FBF7C6FC17
:10686000612013AA3146C000FBF73CFC312003AA8B
:1068700001210001FBF736FC384807AA0221083045
:10688000FBF730FC354808AA02210930FBF72AFC47
:10689000324809AA02210A30FBF724FCC5200AAAC3
:1068A00002218000FBF71EFC2DA0FBF7A5FC024691
:1068B0002BA13348FBF7BCFB314A15210020FBF725
:1068C00079FD1926B60131460620FBF749FD314610
:1068D0000720FBF745FD31460820FBF741FD314617
:1068E0000920FBF73DFD02216846069401720473FE
:1068F000032101740575812006AA0421C000FBF75D
:10690000A9FB012102AA8802FBF7A4FB134803AAF2
:106910000121F930FBF79EFB104804AA0121FA304F
:10692000FBF798FB0D4805AA0121FD30FBF792FB10
:10693000601EFBF745FDFCF7E7F8054924310846E2
:106940000838FCF727F8FBF741FD1EB070BD0000CA
:1069500058B50020010203040506000009030000E9
:106960004954494D45000000616476657274446184
:10697000746100005363616E52737044617461000E
:1069800088C1002010B5084B002909D0002A09D081
:10699000012400011C54C0180281C160002010BDF8
:1069A000022010BD0B2010BD7CBE00200A4610B591
:1069B00001460248FFF7B6FB10BD000078BE00207C
:1069C00010B50146014803F017FD10BD78BE002048
:1069D000114A10B511469278B031012A05D00279DA
:1069E0001B2A05D01D2A03D013E000F05DF810E04B
:1069F000027A4B89934202D100F022F809E0898A99
:106A0000914206D1044B0146827A0B311846FFF7BA
:106A1000C4FA012010BD000078BE002070B5074CFC
:106A20000E460546FF22393200212046FBF71EFBA9
:106A30002670FF3401340020656370BD78BE0020ED
:106A40001FB5827A1049082A1CD1C27A6B461A7087
:106A5000027B5A70427B9A70827BDA70C27B1A7119
:106A6000027C5A71427C9A71807CD8710820039311
:106A700058720220FF3118720131496B002901D090
:106A800002A888471FBD000078BE002010B5054948
:106A9000B0225052012048708870002000F004F8A5
:106AA000002010BD78BE0020F0B5A94E0446304647
:106AB000727801783546B03085B0B035002700884F
:106AC0001300FBF787FB0C070A22324D98AFCEE587
:106AD000F5F4F3F2012005B0F0BD0024AC80EC80A9
:106AE0009CA00FC803936B4607C3337828881022F5
:106AF0006946FBF771FC002803D0FF207070012766
:106B0000F1E002207070AC70F0E02079072808D125
:106B1000207A002805D06089A880A089E880032019
:106B20001CE0FF2070700227DDE02279072AEBD1FC
:106B300062781A2AE8D1AC88002CE5D0EA88002ACD
:106B4000E2D00B462146FBF74DFC002129720028BC
:106B500003D0FF2070700327C5E004207070C5E0EB
:106B600020790928D0D1607A152803D0FF207070D1
:106B70000627B8E020460A300090002034E0009953
:106B80002846CA7809790A3009025118009A89B250
:106B90005379927912029A18724B92B2D2180AD093
:106BA000714BD2180BD0704B6033DA420AD1C180DE
:106BB0000021018106E001800021418002E0418145
:106BC00000218181287A401CC0B22872032805D197
:106BD00000F07AFA07000CD0FF2070700098153092
:106BE00000900198401CC0B20190217A8142C6D821
:106BF00077E00520F1E72279092A77D162781A2A0D
:106C000074D10B46A989491E8AB26989FBF7F0FB4A
:106C1000002805D000206881FF207070072762E0FF
:106C200006209BE72079052860D1207A00285DD0D6
:106C3000607A01285AD100200FE0810009194B7BAE
:106C40000A7B1B02D218494B92B29A4203D149895E
:106C5000E98107217170401CC0B2217A8142ECD8D1
:106C60003FE02279052A41D162781A2A3ED10B46AB
:106C7000A98AEA8A491C89B2FBF7BAFB002805D029
:106C800000202883FF20707008272CE0082065E78B
:106C9000207905282AD100208446207A002825D092
:106CA000607A012822D1002013E04CE048E039E06E
:106CB00024E0810009194B7B0A7B1B02D2182B4B65
:106CC00092B29A4203D14989298301218C46401C02
:106CD000C0B2217A8142ECD86046002808D0092051
:106CE0007070002F02D02249002008703846F2E66A
:106CF00000202883FF2070700927F4E720790528F9
:106D000010D160781A280DD1E8890121FBF724FC05
:106D1000002805D000202883FF2070700A27E2E7B2
:106D20000A20707020791328E0D1288B0121FBF70D
:106D300013FC0028EED10C2070700220B070D5E753
:106D400020791328F7D0FF2070700B27CBE70000C5
:106D500078BE0020D0002D121E4B0FA4994ECEB548
:106D600031F4057943E2FFFFC2A1FFFF02290000D1
:106D7000C4B60020F8B502465948002503780446F9
:106D8000203C584F012B02D10570207F3871564BA3
:106D900000209A4206DC5648544A10210078FBF73E
:106DA00095F9F8BDE37F012BFBD0524E002908D0A6
:106DB000A577FD7000214B00491CC9B2F5520A2984
:106DC000F9D34849464BC978203B9B7E8C460093BB
:106DD000002909D0002B07D1738A991A00D5D11A3E
:106DE0007D235B0199420EDC01214B00F75A9B1970
:106DF000403B491CC9B2DF870A29F6D37282394960
:106E00006246521CCA70374F0A23F9780A2900D308
:106E1000FB700021491CC9B20A29FBD30122F97871
:106E200007E00A239B1A5E00324B9B5B1818521C2A
:106E3000D2B28A42F5D9002901D0FBF74DF92E498B
:106E4000884201D364200CE02C49884201D87D702F
:106E500008E02A4949424018642148432849FBF781
:106E60003BF978701F481E4A00990078803A012942
:106E70000BD07978884200D03970397851713879DF
:106E8000FEF7E8FD20773871F8BDE17E012907D0D3
:106E900078783870387850710F280DD200201CE0B7
:106EA0007978814206D9B878401CC0B2B8700228FF
:106EB000F0D33970BD70EDE71E2801D201200CE03F
:106EC0002D2801D2022008E03C2801D2032004E052
:106ED0004B2801D2042000E0052020770520D2E7CE
:106EE00040C300204AB6002048710000881300000B
:106EF000D6B60020D8CE002048A30000C4860000EB
:106F0000841C000001680A0508D11031044A0160A0
:106F100052781203914201D3891A01607047000030
:106F200050B5002010B50F20FBF768FA1149002872
:106F30000CD001208876087B002801D0212013E0A6
:106F40000D4808210078FBF7A9F80FE000208876AB
:106F5000087B01280AD107482038017C002902D18A
:106F6000407F012802D00120FBF7F2F8FFF7ABFACF
:106F700010BD000020C30020D6B600200449897B44
:106F8000C91D081AC0B2072801D3C01FC0B270477C
:106F900000C20020F8B5496894460A7849780698F6
:106FA000090251188FB2444A11210025079CBE1ACC
:106FB000091A974243D009DC404ABA1813D0012A73
:106FC0001CD0022A25D0032A08D12EE0012E40D061
:106FD000022E48D0032E50D0292E5AD000201870EF
:106FE0000A252846F8BD082855D20821091AA142C9
:106FF00000D80C46E2B21A70314957E00C284AD248
:107000000C21091AA14200D80C46E2B21A702D498F
:107010004CE00D283FD20D21091AA14200D80C46A0
:107020002849E2B21A700D3140E0112833D2A14252
:1070300000D80C462349E2B21A701B3136E0112801
:1070400029D2A14200D80C461E49E2B21A702D3155
:107050002CE011281FD2A14200D80C461949E2B2F7
:107060001A703F3122E0112815D2A14200D80C46F7
:107070001449E2B21A70513118E00E280BD20E21D9
:10708000091AA14200D80C460E49E2B21A706331C7
:107090000CE0072801D30725A3E70721091AA1421D
:1070A00000D80C460649E2B21A70C91F091860469A
:1070B000FAF7BEFF95E70000272A0000DDD5FFFFA5
:1070C000FBAE0020C4BB0311F0B5364E00203146A4
:1070D0000D46BA31CA884C89B0350B88A24201D21C
:1070E000174600E027469F4205D9A24201D927460C
:1070F0000BE0174609E0A24201D2274600E01746FE
:107100009F4207D9A242F4D8F1E74F80A34203D2AD
:107110001F4602E0EF88F8E72746974205D9A342C9
:1071200001D927460BE01F4609E0A34201D22746BA
:1071300000E01F46974207D9A342F4D8F1E70F8138
:10714000934203D21F4602E0EF88F8E71746A742B2
:1071500003D993420AD81A4608E0934201D217464F
:1071600000E01F46A74218D99342F4D88A810A88C2
:10717000FF25002A13D0CB88002B10D04C89002C7F
:107180000DD04F88BA4205D20A89934202D289892A
:107190008C4201D375700420F0BDEA88E6E7757073
:1071A0000520F0BD78BE0020F0B5524E524F99B088
:1071B0007168396071783971FF21B971102100242B
:1071C000797125460922FF21F81DFAF74FFF4E225B
:1071D000002104A8FAF74AFF35E038682103401877
:1071E00003F0FCFD014610226846FAF721FF0098E3
:1071F0003968884218D1684600793979884213D1B4
:1072000068464079797988420ED1684671788079EC
:10721000491E884225DAA04201D1022500E003255B
:1072200004A90855B8710CE00098401C19D16846B3
:107230000079FF2815D168464079FF2811D104A9AB
:107240000855641CE4B23979A142C6D8042D08D08F
:10725000B8790024FF2807D0012D05D0002004AA0A
:1072600024E0202019B0F0BD00250DE0BD71386884
:10727000290340181022204903F0BEFD002801D048
:107280001F20EFE76D1CEDB23879401EA842EDDCFF
:107290003C743879401E7874102078820120307058
:1072A00026E0135C002B03D0401CC0B28142F8D80A
:1072B00081421DD9401E0818FAF77AFF797401201F
:1072C0003070002218A91046189400F017F8002812
:1072D00002D0212802D004E0189901E0012109031D
:1072E0007982C0B2212803D0002801D02A20B9E732
:1072F0000020B7E750B5002074C10020F7B5012485
:1073000084B000200E4627460190A6E05C48017933
:10731000407CC019FAF7E0FEC8B2FF2C03D3FF3C53
:10732000A4B2FF2C36D2049A002A01D1544A117417
:107330000003012503900198002803D0002001904C
:10734000281906E0012C05D92819811EFF291ADA0F
:10735000401E85B203982901081802904848016828
:107360000298081803F03AFD014604226846FAF72D
:107370005FFE049800280ED0012822D0022842D0B7
:10738000062007B0F0BDFF200230401B201A84B257
:10739000012001905FE000998803800F04D002284B
:1073A00002D0032852D107E00803800F012821D121
:1073B000080D21E0012124E002980005000D306055
:1073C00055E000988203910F04D0022905D00329CB
:1073D0003CD152E0910F022908D1328881B292B299
:1073E000914203D106990298086040E00103890F99
:1073F00001293ED0012429E00C21FAF76DFE002975
:10740000D8D1441822E000988103890F04D00229C2
:10741000ECD003291AD12AE00103890F012903D0F6
:10742000306801240C300BE0000D0C21FAF754FEFB
:10743000002900D0012144180C203168604308184D
:107440003060069806990068401C08606D1CADB25B
:10745000FF2D00D86FE77F1CFFB20A4840788742B3
:1074600000D253E70498002805D0012805D0002059
:1074700087E7000DC0E7212083E7252081E7000092
:1074800074C1002050B5002038B5044604220C49D0
:107490006846FAF745FE2046009900F021F8694653
:1074A0008C780621484344430A212046FAF714FE0B
:1074B000042900D90A340A212046FAF70DFE38BD06
:1074C000E1C2002038B50446042204496846FAF7B0
:1074D00027FE2046009900F003F838BDE1C20020E5
:1074E00073B5054668464479322C01D232240DE04A
:1074F000BE2C01D9BE2409E00A212046FAF7ECFD92
:10750000002903D00A21401C4843C4B20D48002181
:10751000425CA24203D0491CC9B20F29F8D30948E2
:107520000F30405C0A2145432846FAF7D5FD0A2171
:10753000FAF7D2FD042900D9643564212846FAF708
:10754000CBFD7CBDC0BC031170B5084D0446285D61
:107550000B2807D164231A4601216320FAF76AFE3B
:10756000FDF77AFD285DFAF7F3FD70BD39B700200D
:1075700010B50D49002048668866C8660B4A486702
:107580000A6788670A4A80314A60803188640948FE
:10759000FF224864F532134603216320FAF74AFEBE
:1075A00005480A21017510BDE0C1002043530311B5
:1075B00039530311BD75031100C3002008B50648F7
:1075C000407C002807D005487C233A2100901A46C9
:1075D0000846FAF719FF08BD00C30020FB820E0021
:1075E00010B5FAF717FF10BD70B514480025124901
:1075F00045640164124981641249C16412494166BB
:10760000124981661249C1661249016712498567AC
:1076100041670A4C11488034A560606020461049DB
:10762000803081640F494164FAF7FAFE206A00282D
:1076300000D08047658270BDD13D0020E0C10020B0
:10764000FDAB0311F9AB0311955303115153031112
:10765000695303116D530311915303114D530311DA
:10766000E17503116976031110B50348417C007F71
:1076700000F022FD10BD000000C300200D480C49A1
:10768000016400214164C16441668166C16601678D
:10769000094A416782648167FF300130816407498C
:1076A00041648038406A002800D0004770470000DD
:1076B000D13D0020E0C1002021AC0311C1760311AF
:1076C00010B50348417C007F00F09AFE10BD000019
:1076D00000C3002010B50E48002101644164C1645C
:1076E00041660C4A81668264C1660B4A4167026743
:1076F00081670A4A80304260803081640849FF22F5
:107700004164F532134603216320FAF793FD10BD5F
:10771000E0C1002035AC0311B7530311AD53031181
:107720002577031108B50648407C002807D0054896
:107730007C233A2100901A460846FAF765FE08BDF8
:1077400000C30020DB7E0D0010B5FAF763FE10BD0C
:107750000F480E4901640F4A8264002141640E4AB9
:10776000C2640E4A42660E4A82660E4AC2660E4ADB
:1077700002670E4A426781670D4A8030426081602D
:107780000C49803081640C4941647047D13D002030
:10779000E0C1002041AC03113FAC0311D3530311EE
:1077A000C3530311C5530311C7530311D15303111D
:1077B000C153031149770311BD77031108B50C4973
:1077C0000C4A087F497C002902D1117881420DD0F2
:1077D00010700321FAF780FC8800074999230858A4
:1077E00000909B222B212A20FAF70EFE08BD0000F4
:1077F00000C3002034B700203CAB002010B5124875
:107800000024104944640164104981641049C16432
:1078100010494166104981661049C16610490167E7
:107820001049846741671049843012C00F49B8304D
:1078300012C064231A4601216320FAF7FBFC0C48AE
:10784000048010BDD13D0020E0C100204DAC0311EB
:107850004BAC03114D540311D95303111D540311A3
:107860002154031149540311D553031175780311A1
:1078700036B7002010B50448417C007FC007C00F18
:1078800000F0FEFD10BD000000C3002010B50E4842
:10789000002101644164C16441660C4A81668264CE
:1078A000C1660B4A4167026781670A4A80304260BD
:1078B0008030816408494164FF226423F53201214C
:1078C0006320FAF7B7FC10BDE0C1002065AC0311DE
:1078D0009B54031191540311DD78031108B5074837
:1078E000407C002809D0FAF73FFC05480090762339
:1078F00030223D216020FAF787FD08BD00C300203B
:10790000B75D0D0010B5FAF785FD10BD114810499F
:107910000164114A826400214164104AC264104A21
:107920004266104A8266104AC266104A0267104ACE
:107930004267104A8267104A8030426081600F4976
:10794000803081640E4941640A21203001757047FE
:10795000D13D0020E0C1002071AC03116FAC0311D8
:10796000B9540311A9540311AB540311AD540311BD
:10797000B7540311A7540311A5540311057903113A
:107980008579031110B50348417C007F00F0DAFDD2
:1079900010BD000000C3002010B5FAF73BFD10BD7C
:1079A000114810490164114A826400214164104A5F
:1079B000C264104A4266104A8266104AC266104A81
:1079C0000267104A426781670F4AC2670F4A8030D8
:1079D00002600F4A426081600E49803081640E4926
:1079E00041647047D13D0020E0C100207DAC03110F
:1079F0007BAC031189550311C1540311ED540311DC
:107A0000F154031115550311BD540311BF54031153
:107A1000BB540311997903111D7A031110B5034862
:107A2000417C007F00F056FE10BD000000C3002026
:107A300010B5FAF7EFFC10BD10480F490164104A69
:107A40008264002141640F4AC2640F4A42660F4AB1
:107A500082660F4AC2660F4A02670F4A42670F4AA0
:107A600082670F4A8030426081600E4980308164B5
:107A70000D49416470470000D13D0020E0C1002065
:107A8000A5AC0311A1AC0311FD550311B9550311A8
:107A9000D1550311D5550311F9550311B7550311EC
:107AA000B5550311317A0311AD7A031110B50348AE
:107AB000417C007F00F058FE10BD000000C3002094
:107AC00010B5FAF7A7FC10BD0F480E4901640F4A24
:107AD0008264002141640E4AC2640E4A42660E4A24
